{
  "_format": "hh-sol-artifact-1",
  "contractName": "ActivationPortal",
  "sourceName": "contracts/ActivationPortal.sol",
  "abi": [
    {
      "inputs": [],
      "stateMutability": "nonpayable",
      "type": "constructor"
    },
    {
      "inputs": [],
      "name": "activatePortal",
      "outputs": [],
      "stateMutability": "nonpayable",
      "type": "function"
    },
    {
      "inputs": [
        {
          "internalType": "uint256",
          "name": "",
          "type": "uint256"
        }
      ],
      "name": "addr",
      "outputs": [
        {
          "internalType": "address",
          "name": "",
          "type": "address"
        }
      ],
      "stateMutability": "view",
      "type": "function"
    },
    {
      "inputs": [],
      "name": "closePortal",
      "outputs": [],
      "stateMutability": "nonpayable",
      "type": "function"
    },
    {
      "inputs": [],
      "name": "getAllAddresses",
      "outputs": [
        {
          "internalType": "address[]",
          "name": "",
          "type": "address[]"
        }
      ],
      "stateMutability": "view",
      "type": "function"
    },
    {
      "inputs": [],
      "name": "getPortalsOpenForUser",
      "outputs": [
        {
          "internalType": "uint256",
          "name": "",
          "type": "uint256"
        }
      ],
      "stateMutability": "view",
      "type": "function"
    },
    {
      "inputs": [],
      "name": "getTotalPortalsOpen",
      "outputs": [
        {
          "internalType": "uint256",
          "name": "",
          "type": "uint256"
        }
      ],
      "stateMutability": "view",
      "type": "function"
    },
    {
      "inputs": [
        {
          "internalType": "address",
          "name": "",
          "type": "address"
        }
      ],
      "name": "portalsOpen",
      "outputs": [
        {
          "internalType": "uint256",
          "name": "",
          "type": "uint256"
        }
      ],
      "stateMutability": "view",
      "type": "function"
    }
  ],
  "bytecode": "0x60806040523480156200001157600080fd5b50620000416040518060600160405280602c815260200162000ed3602c91396200004760201b620005bb1760201c565b620001db565b620000e7816040516024016200005e919062000154565b6040516020818303038152906040527f41304fac000000000000000000000000000000000000000000000000000000007bffffffffffffffffffffffffffffffffffffffffffffffffffffffff19166020820180517bffffffffffffffffffffffffffffffffffffffffffffffffffffffff8381831617835250505050620000ea60201b60201c565b50565b60008151905060006a636f6e736f6c652e6c6f679050602083016000808483855afa5050505050565b6000620001208262000178565b6200012c818562000183565b93506200013e81856020860162000194565b6200014981620001ca565b840191505092915050565b6000602082019050818103600083015262000170818462000113565b905092915050565b600081519050919050565b600082825260208201905092915050565b60005b83811015620001b457808201518184015260208101905062000197565b83811115620001c4576000848401525b50505050565b6000601f19601f8301169050919050565b610ce880620001eb6000396000f3fe608060405234801561001057600080fd5b506004361061007d5760003560e01c80639516a1041161005b5780639516a104146100c6578063970ef8f4146100e4578063d6d6d8f414610102578063ffa18649146101205761007d565b806311854c69146100825780636e3ab0541461008c5780638eae2f9614610096575b600080fd5b61008a610150565b005b6100946102a8565b005b6100b060048036038101906100ab919061087e565b6103c5565b6040516100bd9190610aa9565b60405180910390f35b6100ce6103dd565b6040516100db91906109c7565b60405180910390f35b6100ec61046b565b6040516100f99190610aa9565b60405180910390f35b61010a6104b6565b6040516101179190610aa9565b60405180910390f35b61013a600480360381019061013591906108a7565b61057c565b60405161014791906109ac565b60405180910390f35b60018060003373ffffffffffffffffffffffffffffffffffffffff1673ffffffffffffffffffffffffffffffffffffffff1681526020019081526020016000205410156101fb576002339080600181540180825580915050600190039060005260206000200160009091909190916101000a81548173ffffffffffffffffffffffffffffffffffffffff021916908373ffffffffffffffffffffffffffffffffffffffff1602179055505b60008081548092919061020d90610bb2565b9190505550600160003373ffffffffffffffffffffffffffffffffffffffff1673ffffffffffffffffffffffffffffffffffffffff168152602001908152602001600020600081548092919061026290610bb2565b91905055506102a66040518060400160405280601a81526020017f25732068617320416374697661746564206120506f7274616c2100000000000081525033610654565b565b6000600160003373ffffffffffffffffffffffffffffffffffffffff1673ffffffffffffffffffffffffffffffffffffffff1681526020019081526020016000205411156103a05760008081548092919061030290610b88565b9190505550600160003373ffffffffffffffffffffffffffffffffffffffff1673ffffffffffffffffffffffffffffffffffffffff168152602001908152602001600020600081548092919061035790610b88565b919050555061039b6040518060400160405280601781526020017f25732068617320436c6f736564206120506f7274616c2100000000000000000081525033610654565b6103c3565b6103c2604051806080016040528060498152602001610c6a6049913933610654565b5b565b60016020528060005260406000206000915090505481565b6060600280548060200260200160405190810160405280929190818152602001828054801561046157602002820191906000526020600020905b8160009054906101000a900473ffffffffffffffffffffffffffffffffffffffff1673ffffffffffffffffffffffffffffffffffffffff1681526020019060010190808311610417575b5050505050905090565b60006104ae6040518060400160405280601e81526020017f5765206861766520256420746f74616c20506f7274616c73206f70656e2100008152506000546106f0565b600054905090565b60006105376040518060400160405280601881526020017f257320686173206f70656e656420256420706f7274616c73000000000000000081525033600160003373ffffffffffffffffffffffffffffffffffffffff1673ffffffffffffffffffffffffffffffffffffffff1681526020019081526020016000205461078c565b600160003373ffffffffffffffffffffffffffffffffffffffff1673ffffffffffffffffffffffffffffffffffffffff16815260200190815260200160002054905090565b6002818154811061058c57600080fd5b906000526020600020016000915054906101000a900473ffffffffffffffffffffffffffffffffffffffff1681565b610651816040516024016105cf91906109e9565b6040516020818303038152906040527f41304fac000000000000000000000000000000000000000000000000000000007bffffffffffffffffffffffffffffffffffffffffffffffffffffffff19166020820180517bffffffffffffffffffffffffffffffffffffffffffffffffffffffff838183161783525050505061082b565b50565b6106ec828260405160240161066a929190610a0b565b6040516020818303038152906040527f319af333000000000000000000000000000000000000000000000000000000007bffffffffffffffffffffffffffffffffffffffffffffffffffffffff19166020820180517bffffffffffffffffffffffffffffffffffffffffffffffffffffffff838183161783525050505061082b565b5050565b6107888282604051602401610706929190610a79565b6040516020818303038152906040527f9710a9d0000000000000000000000000000000000000000000000000000000007bffffffffffffffffffffffffffffffffffffffffffffffffffffffff19166020820180517bffffffffffffffffffffffffffffffffffffffffffffffffffffffff838183161783525050505061082b565b5050565b6108268383836040516024016107a493929190610a3b565b6040516020818303038152906040527f07c81217000000000000000000000000000000000000000000000000000000007bffffffffffffffffffffffffffffffffffffffffffffffffffffffff19166020820180517bffffffffffffffffffffffffffffffffffffffffffffffffffffffff838183161783525050505061082b565b505050565b60008151905060006a636f6e736f6c652e6c6f679050602083016000808483855afa5050505050565b60008135905061086381610c3b565b92915050565b60008135905061087881610c52565b92915050565b60006020828403121561089057600080fd5b600061089e84828501610854565b91505092915050565b6000602082840312156108b957600080fd5b60006108c784828501610869565b91505092915050565b60006108dc83836108e8565b60208301905092915050565b6108f181610b19565b82525050565b61090081610b19565b82525050565b600061091182610ad4565b61091b8185610af7565b935061092683610ac4565b8060005b8381101561095757815161093e88826108d0565b975061094983610aea565b92505060018101905061092a565b5085935050505092915050565b600061096f82610adf565b6109798185610b08565b9350610989818560208601610b55565b61099281610c2a565b840191505092915050565b6109a681610b4b565b82525050565b60006020820190506109c160008301846108f7565b92915050565b600060208201905081810360008301526109e18184610906565b905092915050565b60006020820190508181036000830152610a038184610964565b905092915050565b60006040820190508181036000830152610a258185610964565b9050610a3460208301846108f7565b9392505050565b60006060820190508181036000830152610a558186610964565b9050610a6460208301856108f7565b610a71604083018461099d565b949350505050565b60006040820190508181036000830152610a938185610964565b9050610aa2602083018461099d565b9392505050565b6000602082019050610abe600083018461099d565b92915050565b6000819050602082019050919050565b600081519050919050565b600081519050919050565b6000602082019050919050565b600082825260208201905092915050565b600082825260208201905092915050565b6000610b2482610b2b565b9050919050565b600073ffffffffffffffffffffffffffffffffffffffff82169050919050565b6000819050919050565b60005b83811015610b73578082015181840152602081019050610b58565b83811115610b82576000848401525b50505050565b6000610b9382610b4b565b91506000821415610ba757610ba6610bfb565b5b600182039050919050565b6000610bbd82610b4b565b91507fffffffffffffffffffffffffffffffffffffffffffffffffffffffffffffffff821415610bf057610bef610bfb565b5b600182019050919050565b7f4e487b7100000000000000000000000000000000000000000000000000000000600052601160045260246000fd5b6000601f19601f8301169050919050565b610c4481610b19565b8114610c4f57600080fd5b50565b610c5b81610b4b565b8114610c6657600080fd5b5056fe257320697320617474656d7074696e6720746f20636c6f7365206120506f7274616c207468617420646f6573206e6f742065786973742c20497320746865726520612073706f6f6e3fa2646970667358221220975eddc4efe4adf5d84f7ed50fe85f344db4ef3cf8ce9d76dcdf62e5614224e664736f6c634300080000334d7920636f6e7472616374732070616e74732061726520736d6172746572207468616e20796f757273203b50",
  "linkReferences": {},
  "deployedLinkReferences": {}
}