{
  "_format": "hh-sol-artifact-1",
  "contractName": "ActivationPortal",
  "sourceName": "contracts/ActivationPortal.sol",
  "abi": [
    {
      "inputs": [],
      "stateMutability": "payable",
      "type": "constructor"
    },
    {
      "anonymous": false,
      "inputs": [
        {
          "indexed": true,
          "internalType": "address",
          "name": "from",
          "type": "address"
        },
        {
          "indexed": false,
          "internalType": "uint256",
          "name": "timestamp",
          "type": "uint256"
        },
        {
          "indexed": false,
          "internalType": "string",
          "name": "message",
          "type": "string"
        },
        {
          "indexed": false,
          "internalType": "string",
          "name": "name",
          "type": "string"
        }
      ],
      "name": "NewPortal",
      "type": "event"
    },
    {
      "inputs": [
        {
          "internalType": "string",
          "name": "_message",
          "type": "string"
        },
        {
          "internalType": "string",
          "name": "_name",
          "type": "string"
        }
      ],
      "name": "activatePortal",
      "outputs": [],
      "stateMutability": "nonpayable",
      "type": "function"
    },
    {
      "inputs": [],
      "name": "getAllPortals",
      "outputs": [
        {
          "components": [
            {
              "internalType": "address",
              "name": "Activator",
              "type": "address"
            },
            {
              "internalType": "string",
              "name": "message",
              "type": "string"
            },
            {
              "internalType": "string",
              "name": "name",
              "type": "string"
            },
            {
              "internalType": "uint256",
              "name": "timestamp",
              "type": "uint256"
            }
          ],
          "internalType": "struct ActivationPortal.Portal[]",
          "name": "",
          "type": "tuple[]"
        }
      ],
      "stateMutability": "view",
      "type": "function"
    },
    {
      "inputs": [],
      "name": "getTotalPortalsOpen",
      "outputs": [
        {
          "internalType": "uint256",
          "name": "",
          "type": "uint256"
        }
      ],
      "stateMutability": "view",
      "type": "function"
    },
    {
      "inputs": [
        {
          "internalType": "address",
          "name": "",
          "type": "address"
        }
      ],
      "name": "lastPortalOpenAt",
      "outputs": [
        {
          "internalType": "uint256",
          "name": "",
          "type": "uint256"
        }
      ],
      "stateMutability": "view",
      "type": "function"
    }
  ],
  "bytecode": "0x6080604052620000336040518060600160405280602c815260200162001531602c91396200005b60201b620006e41760201c565b60644442620000439190620001a8565b6200004f919062000245565b600181905550620002ec565b620000fb8160405160240162000072919062000168565b6040516020818303038152906040527f41304fac000000000000000000000000000000000000000000000000000000007bffffffffffffffffffffffffffffffffffffffffffffffffffffffff19166020820180517bffffffffffffffffffffffffffffffffffffffffffffffffffffffff8381831617835250505050620000fe60201b60201c565b50565b60008151905060006a636f6e736f6c652e6c6f679050602083016000808483855afa5050505050565b600062000134826200018c565b62000140818562000197565b9350620001528185602086016200020f565b6200015d81620002db565b840191505092915050565b6000602082019050818103600083015262000184818462000127565b905092915050565b600081519050919050565b600082825260208201905092915050565b6000620001b58262000205565b9150620001c28362000205565b9250827fffffffffffffffffffffffffffffffffffffffffffffffffffffffffffffffff03821115620001fa57620001f96200027d565b5b828201905092915050565b6000819050919050565b60005b838110156200022f57808201518184015260208101905062000212565b838111156200023f576000848401525b50505050565b6000620002528262000205565b91506200025f8362000205565b925082620002725762000271620002ac565b5b828206905092915050565b7f4e487b7100000000000000000000000000000000000000000000000000000000600052601160045260246000fd5b7f4e487b7100000000000000000000000000000000000000000000000000000000600052601260045260246000fd5b6000601f19601f8301169050919050565b61123580620002fc6000396000f3fe608060405234801561001057600080fd5b506004361061004c5760003560e01c80633439f55714610051578063970ef8f41461006d5780639bba178b1461008b578063c9c37114146100bb575b600080fd5b61006b60048036038101906100669190610a2a565b6100d9565b005b61007561049e565b6040516100829190610e8b565b60405180910390f35b6100a560048036038101906100a09190610a01565b6104e9565b6040516100b29190610e8b565b60405180910390f35b6100c3610501565b6040516100d09190610d72565b60405180910390f35b42600f600360003373ffffffffffffffffffffffffffffffffffffffff1673ffffffffffffffffffffffffffffffffffffffff168152602001908152602001600020546101269190610fbd565b10610166576040517f08c379a000000000000000000000000000000000000000000000000000000000815260040161015d90610e4b565b60405180910390fd5b42600360003373ffffffffffffffffffffffffffffffffffffffff1673ffffffffffffffffffffffffffffffffffffffff1681526020019081526020016000208190555060016000808282546101bc9190610fbd565b92505081905550600260405180608001604052803373ffffffffffffffffffffffffffffffffffffffff16815260200184815260200183815260200142815250908060018154018082558091505060019003906000526020600020906004020160009091909190915060008201518160000160006101000a81548173ffffffffffffffffffffffffffffffffffffffff021916908373ffffffffffffffffffffffffffffffffffffffff16021790555060208201518160010190805190602001906102889291906108e1565b5060408201518160020190805190602001906102a59291906108e1565b506060820151816003015550506102d56040518060600160405280602781526020016111d960279139338461077d565b606460015442446102e69190610fbd565b6102f09190610fbd565b6102fa91906110c3565b6001819055506103416040518060400160405280601681526020017f52616e646f6d20232067656e6572617465643a2025640000000000000000000081525060015461081c565b603260015411610448576000655af3107a4000905047811115610399576040517f08c379a000000000000000000000000000000000000000000000000000000000815260040161039090610e6b565b60405180910390fd5b60003373ffffffffffffffffffffffffffffffffffffffff16826040516103bf90610d5d565b60006040518083038185875af1925050503d80600081146103fc576040519150601f19603f3d011682016040523d82523d6000602084013e610401565b606091505b5050905080610445576040517f08c379a000000000000000000000000000000000000000000000000000000000815260040161043c90610e2b565b60405180910390fd5b50505b3373ffffffffffffffffffffffffffffffffffffffff167f4c18e1aba627e0c5fcca644bde9846fa23c22cdd440599a3bf0a04b67bbf3db142848460405161049293929190610ea6565b60405180910390a25050565b60006104e16040518060400160405280601e81526020017f5765206861766520256420746f74616c20506f7274616c73206f70656e21000081525060005461081c565b600054905090565b60036020528060005260406000206000915090505481565b60606002805480602002602001604051908101604052809291908181526020016000905b828210156106db57838290600052602060002090600402016040518060800160405290816000820160009054906101000a900473ffffffffffffffffffffffffffffffffffffffff1673ffffffffffffffffffffffffffffffffffffffff1673ffffffffffffffffffffffffffffffffffffffff1681526020016001820180546105ae90611091565b80601f01602080910402602001604051908101604052809291908181526020018280546105da90611091565b80156106275780601f106105fc57610100808354040283529160200191610627565b820191906000526020600020905b81548152906001019060200180831161060a57829003601f168201915b5050505050815260200160028201805461064090611091565b80601f016020809104026020016040519081016040528092919081815260200182805461066c90611091565b80156106b95780601f1061068e576101008083540402835291602001916106b9565b820191906000526020600020905b81548152906001019060200180831161069c57829003601f168201915b5050505050815260200160038201548152505081526020019060010190610525565b50505050905090565b61077a816040516024016106f89190610d94565b6040516020818303038152906040527f41304fac000000000000000000000000000000000000000000000000000000007bffffffffffffffffffffffffffffffffffffffffffffffffffffffff19166020820180517bffffffffffffffffffffffffffffffffffffffffffffffffffffffff83818316178352505050506108b8565b50565b61081783838360405160240161079593929190610db6565b6040516020818303038152906040527fe0e9ad4f000000000000000000000000000000000000000000000000000000007bffffffffffffffffffffffffffffffffffffffffffffffffffffffff19166020820180517bffffffffffffffffffffffffffffffffffffffffffffffffffffffff83818316178352505050506108b8565b505050565b6108b48282604051602401610832929190610dfb565b6040516020818303038152906040527f9710a9d0000000000000000000000000000000000000000000000000000000007bffffffffffffffffffffffffffffffffffffffffffffffffffffffff19166020820180517bffffffffffffffffffffffffffffffffffffffffffffffffffffffff83818316178352505050506108b8565b5050565b60008151905060006a636f6e736f6c652e6c6f679050602083016000808483855afa5050505050565b8280546108ed90611091565b90600052602060002090601f01602090048101928261090f5760008555610956565b82601f1061092857805160ff1916838001178555610956565b82800160010185558215610956579182015b8281111561095557825182559160200191906001019061093a565b5b5090506109639190610967565b5090565b5b80821115610980576000816000905550600101610968565b5090565b600061099761099284610f1c565b610eeb565b9050828152602081018484840111156109af57600080fd5b6109ba84828561104f565b509392505050565b6000813590506109d1816111c1565b92915050565b600082601f8301126109e857600080fd5b81356109f8848260208601610984565b91505092915050565b600060208284031215610a1357600080fd5b6000610a21848285016109c2565b91505092915050565b60008060408385031215610a3d57600080fd5b600083013567ffffffffffffffff811115610a5757600080fd5b610a63858286016109d7565b925050602083013567ffffffffffffffff811115610a8057600080fd5b610a8c858286016109d7565b9150509250929050565b6000610aa28383610cd5565b905092915050565b610ab381611013565b82525050565b610ac281611013565b82525050565b6000610ad382610f5c565b610add8185610f7f565b935083602082028501610aef85610f4c565b8060005b85811015610b2b5784840389528151610b0c8582610a96565b9450610b1783610f72565b925060208a01995050600181019050610af3565b50829750879550505050505092915050565b6000610b4882610f67565b610b528185610f9b565b9350610b6281856020860161105e565b610b6b816111b0565b840191505092915050565b6000610b8182610f67565b610b8b8185610fac565b9350610b9b81856020860161105e565b610ba4816111b0565b840191505092915050565b6000610bbc602683610fac565b91507f4661696c656420746f207769746864726177206d6f6e65792066726f6d20636f60008301527f6e747261637400000000000000000000000000000000000000000000000000006020830152604082019050919050565b6000610c22602883610fac565b91507f506f7274616c206f7665726c6f61642077616974203135206d696e20666f722060008301527f636f6f6c646f776e0000000000000000000000000000000000000000000000006020830152604082019050919050565b6000610c88601c83610fac565b91507f4e6f7420456e6f7567682066756e647320696e20636f6e7472616374000000006000830152602082019050919050565b6000610cc8600083610f90565b9150600082019050919050565b6000608083016000830151610ced6000860182610aaa565b5060208301518482036020860152610d058282610b3d565b91505060408301518482036040860152610d1f8282610b3d565b9150506060830151610d346060860182610d3f565b508091505092915050565b610d4881611045565b82525050565b610d5781611045565b82525050565b6000610d6882610cbb565b9150819050919050565b60006020820190508181036000830152610d8c8184610ac8565b905092915050565b60006020820190508181036000830152610dae8184610b76565b905092915050565b60006060820190508181036000830152610dd08186610b76565b9050610ddf6020830185610ab9565b8181036040830152610df18184610b76565b9050949350505050565b60006040820190508181036000830152610e158185610b76565b9050610e246020830184610d4e565b9392505050565b60006020820190508181036000830152610e4481610baf565b9050919050565b60006020820190508181036000830152610e6481610c15565b9050919050565b60006020820190508181036000830152610e8481610c7b565b9050919050565b6000602082019050610ea06000830184610d4e565b92915050565b6000606082019050610ebb6000830186610d4e565b8181036020830152610ecd8185610b76565b90508181036040830152610ee18184610b76565b9050949350505050565b6000604051905081810181811067ffffffffffffffff82111715610f1257610f11611181565b5b8060405250919050565b600067ffffffffffffffff821115610f3757610f36611181565b5b601f19601f8301169050602081019050919050565b6000819050602082019050919050565b600081519050919050565b600081519050919050565b6000602082019050919050565b600082825260208201905092915050565b600081905092915050565b600082825260208201905092915050565b600082825260208201905092915050565b6000610fc882611045565b9150610fd383611045565b9250827fffffffffffffffffffffffffffffffffffffffffffffffffffffffffffffffff03821115611008576110076110f4565b5b828201905092915050565b600061101e82611025565b9050919050565b600073ffffffffffffffffffffffffffffffffffffffff82169050919050565b6000819050919050565b82818337600083830152505050565b60005b8381101561107c578082015181840152602081019050611061565b8381111561108b576000848401525b50505050565b600060028204905060018216806110a957607f821691505b602082108114156110bd576110bc611152565b5b50919050565b60006110ce82611045565b91506110d983611045565b9250826110e9576110e8611123565b5b828206905092915050565b7f4e487b7100000000000000000000000000000000000000000000000000000000600052601160045260246000fd5b7f4e487b7100000000000000000000000000000000000000000000000000000000600052601260045260246000fd5b7f4e487b7100000000000000000000000000000000000000000000000000000000600052602260045260246000fd5b7f4e487b7100000000000000000000000000000000000000000000000000000000600052604160045260246000fd5b6000601f19601f8301169050919050565b6111ca81611013565b81146111d557600080fd5b5056fe25732068617320416374697661746564206120506f7274616c20772f206d657373616765202573a26469706673582212209b61d40e9a4ed35e296d3c0a9d8e3bae54fe5a4bc14a202fad8a50144e0049be64736f6c634300080000334d7920636f6e7472616374732070616e74732061726520736d6172746572207468616e20796f757273203b50",
  "linkReferences": {},
  "deployedLinkReferences": {}
}