{
  "_format": "hh-sol-artifact-1",
  "contractName": "ActivationPortal",
  "sourceName": "contracts/ActivationPortal.sol",
  "abi": [
    {
      "inputs": [],
      "stateMutability": "payable",
      "type": "constructor"
    },
    {
      "anonymous": false,
      "inputs": [
        {
          "indexed": true,
          "internalType": "address",
          "name": "from",
          "type": "address"
        },
        {
          "indexed": false,
          "internalType": "uint256",
          "name": "timestamp",
          "type": "uint256"
        },
        {
          "indexed": false,
          "internalType": "string",
          "name": "message",
          "type": "string"
        }
      ],
      "name": "NewPortal",
      "type": "event"
    },
    {
      "inputs": [
        {
          "internalType": "string",
          "name": "_message",
          "type": "string"
        }
      ],
      "name": "activatePortal",
      "outputs": [],
      "stateMutability": "nonpayable",
      "type": "function"
    },
    {
      "inputs": [],
      "name": "getAllPortals",
      "outputs": [
        {
          "components": [
            {
              "internalType": "address",
              "name": "Activator",
              "type": "address"
            },
            {
              "internalType": "string",
              "name": "message",
              "type": "string"
            },
            {
              "internalType": "uint256",
              "name": "timestamp",
              "type": "uint256"
            }
          ],
          "internalType": "struct ActivationPortal.Portal[]",
          "name": "",
          "type": "tuple[]"
        }
      ],
      "stateMutability": "view",
      "type": "function"
    },
    {
      "inputs": [],
      "name": "getTotalPortalsOpen",
      "outputs": [
        {
          "internalType": "uint256",
          "name": "",
          "type": "uint256"
        }
      ],
      "stateMutability": "view",
      "type": "function"
    },
    {
      "inputs": [
        {
          "internalType": "address",
          "name": "",
          "type": "address"
        }
      ],
      "name": "lastPortalOpenAt",
      "outputs": [
        {
          "internalType": "uint256",
          "name": "",
          "type": "uint256"
        }
      ],
      "stateMutability": "view",
      "type": "function"
    }
  ],
  "bytecode": "0x6080604052620000336040518060600160405280602c815260200162001407602c91396200005b60201b6200062c1760201c565b60644442620000439190620001a8565b6200004f919062000245565b600181905550620002ec565b620000fb8160405160240162000072919062000168565b6040516020818303038152906040527f41304fac000000000000000000000000000000000000000000000000000000007bffffffffffffffffffffffffffffffffffffffffffffffffffffffff19166020820180517bffffffffffffffffffffffffffffffffffffffffffffffffffffffff8381831617835250505050620000fe60201b60201c565b50565b60008151905060006a636f6e736f6c652e6c6f679050602083016000808483855afa5050505050565b600062000134826200018c565b62000140818562000197565b9350620001528185602086016200020f565b6200015d81620002db565b840191505092915050565b6000602082019050818103600083015262000184818462000127565b905092915050565b600081519050919050565b600082825260208201905092915050565b6000620001b58262000205565b9150620001c28362000205565b9250827fffffffffffffffffffffffffffffffffffffffffffffffffffffffffffffffff03821115620001fa57620001f96200027d565b5b828201905092915050565b6000819050919050565b60005b838110156200022f57808201518184015260208101905062000212565b838111156200023f576000848401525b50505050565b6000620002528262000205565b91506200025f8362000205565b925082620002725762000271620002ac565b5b828206905092915050565b7f4e487b7100000000000000000000000000000000000000000000000000000000600052601160045260246000fd5b7f4e487b7100000000000000000000000000000000000000000000000000000000600052601260045260246000fd5b6000601f19601f8301169050919050565b61110b80620002fc6000396000f3fe608060405234801561001057600080fd5b506004361061004c5760003560e01c8063845e131a14610051578063970ef8f41461006d5780639bba178b1461008b578063c9c37114146100bb575b600080fd5b61006b6004803603810190610066919061096f565b6100d9565b005b610075610478565b6040516100829190610d76565b60405180910390f35b6100a560048036038101906100a09190610946565b6104c3565b6040516100b29190610d76565b60405180910390f35b6100c36104db565b6040516100d09190610c72565b60405180910390f35b42610384600360003373ffffffffffffffffffffffffffffffffffffffff1673ffffffffffffffffffffffffffffffffffffffff168152602001908152602001600020546101279190610e93565b10610167576040517f08c379a000000000000000000000000000000000000000000000000000000000815260040161015e90610d36565b60405180910390fd5b42600360003373ffffffffffffffffffffffffffffffffffffffff1673ffffffffffffffffffffffffffffffffffffffff1681526020019081526020016000208190555060016000808282546101bd9190610e93565b925050819055506101e66040518060600160405280602781526020016110af60279139336106c5565b600260405180606001604052803373ffffffffffffffffffffffffffffffffffffffff16815260200183815260200142815250908060018154018082558091505060019003906000526020600020906003020160009091909190915060008201518160000160006101000a81548173ffffffffffffffffffffffffffffffffffffffff021916908373ffffffffffffffffffffffffffffffffffffffff16021790555060208201518160010190805190602001906102a5929190610826565b50604082015181600201555050606460015442446102c39190610e93565b6102cd9190610e93565b6102d79190610f99565b60018190555061031e6040518060400160405280601681526020017f52616e646f6d20232067656e6572617465643a20256400000000000000000000815250600154610761565b603260015411610425576000655af3107a4000905047811115610376576040517f08c379a000000000000000000000000000000000000000000000000000000000815260040161036d90610d56565b60405180910390fd5b60003373ffffffffffffffffffffffffffffffffffffffff168260405161039c90610c5d565b60006040518083038185875af1925050503d80600081146103d9576040519150601f19603f3d011682016040523d82523d6000602084013e6103de565b606091505b5050905080610422576040517f08c379a000000000000000000000000000000000000000000000000000000000815260040161041990610d16565b60405180910390fd5b50505b3373ffffffffffffffffffffffffffffffffffffffff167f23a69cb37f0f5fac74ba86b7fa33b6c92b0b814635dbc50ee9212d2920bef6db428360405161046d929190610d91565b60405180910390a250565b60006104bb6040518060400160405280601e81526020017f5765206861766520256420746f74616c20506f7274616c73206f70656e210000815250600054610761565b600054905090565b60036020528060005260406000206000915090505481565b60606002805480602002602001604051908101604052809291908181526020016000905b8282101561062357838290600052602060002090600302016040518060600160405290816000820160009054906101000a900473ffffffffffffffffffffffffffffffffffffffff1673ffffffffffffffffffffffffffffffffffffffff1673ffffffffffffffffffffffffffffffffffffffff16815260200160018201805461058890610f67565b80601f01602080910402602001604051908101604052809291908181526020018280546105b490610f67565b80156106015780601f106105d657610100808354040283529160200191610601565b820191906000526020600020905b8154815290600101906020018083116105e457829003601f168201915b50505050508152602001600282015481525050815260200190600101906104ff565b50505050905090565b6106c2816040516024016106409190610c94565b6040516020818303038152906040527f41304fac000000000000000000000000000000000000000000000000000000007bffffffffffffffffffffffffffffffffffffffffffffffffffffffff19166020820180517bffffffffffffffffffffffffffffffffffffffffffffffffffffffff83818316178352505050506107fd565b50565b61075d82826040516024016106db929190610cb6565b6040516020818303038152906040527f319af333000000000000000000000000000000000000000000000000000000007bffffffffffffffffffffffffffffffffffffffffffffffffffffffff19166020820180517bffffffffffffffffffffffffffffffffffffffffffffffffffffffff83818316178352505050506107fd565b5050565b6107f98282604051602401610777929190610ce6565b6040516020818303038152906040527f9710a9d0000000000000000000000000000000000000000000000000000000007bffffffffffffffffffffffffffffffffffffffffffffffffffffffff19166020820180517bffffffffffffffffffffffffffffffffffffffffffffffffffffffff83818316178352505050506107fd565b5050565b60008151905060006a636f6e736f6c652e6c6f679050602083016000808483855afa5050505050565b82805461083290610f67565b90600052602060002090601f016020900481019282610854576000855561089b565b82601f1061086d57805160ff191683800117855561089b565b8280016001018555821561089b579182015b8281111561089a57825182559160200191906001019061087f565b5b5090506108a891906108ac565b5090565b5b808211156108c55760008160009055506001016108ad565b5090565b60006108dc6108d784610df2565b610dc1565b9050828152602081018484840111156108f457600080fd5b6108ff848285610f25565b509392505050565b60008135905061091681611097565b92915050565b600082601f83011261092d57600080fd5b813561093d8482602086016108c9565b91505092915050565b60006020828403121561095857600080fd5b600061096684828501610907565b91505092915050565b60006020828403121561098157600080fd5b600082013567ffffffffffffffff81111561099b57600080fd5b6109a78482850161091c565b91505092915050565b60006109bc8383610bef565b905092915050565b6109cd81610ee9565b82525050565b6109dc81610ee9565b82525050565b60006109ed82610e32565b6109f78185610e55565b935083602082028501610a0985610e22565b8060005b85811015610a455784840389528151610a2685826109b0565b9450610a3183610e48565b925060208a01995050600181019050610a0d565b50829750879550505050505092915050565b6000610a6282610e3d565b610a6c8185610e71565b9350610a7c818560208601610f34565b610a8581611086565b840191505092915050565b6000610a9b82610e3d565b610aa58185610e82565b9350610ab5818560208601610f34565b610abe81611086565b840191505092915050565b6000610ad6602683610e82565b91507f4661696c656420746f207769746864726177206d6f6e65792066726f6d20636f60008301527f6e747261637400000000000000000000000000000000000000000000000000006020830152604082019050919050565b6000610b3c602883610e82565b91507f506f7274616c206f7665726c6f61642077616974203135206d696e20666f722060008301527f636f6f6c646f776e0000000000000000000000000000000000000000000000006020830152604082019050919050565b6000610ba2601c83610e82565b91507f4e6f7420456e6f7567682066756e647320696e20636f6e7472616374000000006000830152602082019050919050565b6000610be2600083610e66565b9150600082019050919050565b6000606083016000830151610c0760008601826109c4565b5060208301518482036020860152610c1f8282610a57565b9150506040830151610c346040860182610c3f565b508091505092915050565b610c4881610f1b565b82525050565b610c5781610f1b565b82525050565b6000610c6882610bd5565b9150819050919050565b60006020820190508181036000830152610c8c81846109e2565b905092915050565b60006020820190508181036000830152610cae8184610a90565b905092915050565b60006040820190508181036000830152610cd08185610a90565b9050610cdf60208301846109d3565b9392505050565b60006040820190508181036000830152610d008185610a90565b9050610d0f6020830184610c4e565b9392505050565b60006020820190508181036000830152610d2f81610ac9565b9050919050565b60006020820190508181036000830152610d4f81610b2f565b9050919050565b60006020820190508181036000830152610d6f81610b95565b9050919050565b6000602082019050610d8b6000830184610c4e565b92915050565b6000604082019050610da66000830185610c4e565b8181036020830152610db88184610a90565b90509392505050565b6000604051905081810181811067ffffffffffffffff82111715610de857610de7611057565b5b8060405250919050565b600067ffffffffffffffff821115610e0d57610e0c611057565b5b601f19601f8301169050602081019050919050565b6000819050602082019050919050565b600081519050919050565b600081519050919050565b6000602082019050919050565b600082825260208201905092915050565b600081905092915050565b600082825260208201905092915050565b600082825260208201905092915050565b6000610e9e82610f1b565b9150610ea983610f1b565b9250827fffffffffffffffffffffffffffffffffffffffffffffffffffffffffffffffff03821115610ede57610edd610fca565b5b828201905092915050565b6000610ef482610efb565b9050919050565b600073ffffffffffffffffffffffffffffffffffffffff82169050919050565b6000819050919050565b82818337600083830152505050565b60005b83811015610f52578082015181840152602081019050610f37565b83811115610f61576000848401525b50505050565b60006002820490506001821680610f7f57607f821691505b60208210811415610f9357610f92611028565b5b50919050565b6000610fa482610f1b565b9150610faf83610f1b565b925082610fbf57610fbe610ff9565b5b828206905092915050565b7f4e487b7100000000000000000000000000000000000000000000000000000000600052601160045260246000fd5b7f4e487b7100000000000000000000000000000000000000000000000000000000600052601260045260246000fd5b7f4e487b7100000000000000000000000000000000000000000000000000000000600052602260045260246000fd5b7f4e487b7100000000000000000000000000000000000000000000000000000000600052604160045260246000fd5b6000601f19601f8301169050919050565b6110a081610ee9565b81146110ab57600080fd5b5056fe25732068617320416374697661746564206120506f7274616c20772f206d657373616765202573a2646970667358221220487308c63cfb07d9bf1b7875984d3ae15c750d12602e71fbd434b34e5981c86364736f6c634300080000334d7920636f6e7472616374732070616e74732061726520736d6172746572207468616e20796f757273203b50",
  "linkReferences": {},
  "deployedLinkReferences": {}
}