{
  "_format": "hh-sol-artifact-1",
  "contractName": "ActivationPortal",
  "sourceName": "contracts/ActivationPortal.sol",
  "abi": [
    {
      "inputs": [],
      "stateMutability": "payable",
      "type": "constructor"
    },
    {
      "anonymous": false,
      "inputs": [
        {
          "indexed": true,
          "internalType": "address",
          "name": "from",
          "type": "address"
        },
        {
          "indexed": false,
          "internalType": "uint256",
          "name": "timestamp",
          "type": "uint256"
        },
        {
          "indexed": false,
          "internalType": "string",
          "name": "message",
          "type": "string"
        }
      ],
      "name": "NewPortal",
      "type": "event"
    },
    {
      "inputs": [
        {
          "internalType": "string",
          "name": "_message",
          "type": "string"
        }
      ],
      "name": "activatePortal",
      "outputs": [],
      "stateMutability": "nonpayable",
      "type": "function"
    },
    {
      "inputs": [],
      "name": "getAllPortals",
      "outputs": [
        {
          "components": [
            {
              "internalType": "address",
              "name": "Activator",
              "type": "address"
            },
            {
              "internalType": "string",
              "name": "message",
              "type": "string"
            },
            {
              "internalType": "uint256",
              "name": "timestamp",
              "type": "uint256"
            }
          ],
          "internalType": "struct ActivationPortal.Portal[]",
          "name": "",
          "type": "tuple[]"
        }
      ],
      "stateMutability": "view",
      "type": "function"
    },
    {
      "inputs": [],
      "name": "getTotalPortalsOpen",
      "outputs": [
        {
          "internalType": "uint256",
          "name": "",
          "type": "uint256"
        }
      ],
      "stateMutability": "view",
      "type": "function"
    }
  ],
  "bytecode": "0x6080604052620000336040518060600160405280602c815260200162001207602c91396200005b60201b620005071760201c565b60644442620000439190620001a8565b6200004f919062000245565b600181905550620002ec565b620000fb8160405160240162000072919062000168565b6040516020818303038152906040527f41304fac000000000000000000000000000000000000000000000000000000007bffffffffffffffffffffffffffffffffffffffffffffffffffffffff19166020820180517bffffffffffffffffffffffffffffffffffffffffffffffffffffffff8381831617835250505050620000fe60201b60201c565b50565b60008151905060006a636f6e736f6c652e6c6f679050602083016000808483855afa5050505050565b600062000134826200018c565b62000140818562000197565b9350620001528185602086016200020f565b6200015d81620002db565b840191505092915050565b6000602082019050818103600083015262000184818462000127565b905092915050565b600081519050919050565b600082825260208201905092915050565b6000620001b58262000205565b9150620001c28362000205565b9250827fffffffffffffffffffffffffffffffffffffffffffffffffffffffffffffffff03821115620001fa57620001f96200027d565b5b828201905092915050565b6000819050919050565b60005b838110156200022f57808201518184015260208101905062000212565b838111156200023f576000848401525b50505050565b6000620002528262000205565b91506200025f8362000205565b925082620002725762000271620002ac565b5b828206905092915050565b7f4e487b7100000000000000000000000000000000000000000000000000000000600052601160045260246000fd5b7f4e487b7100000000000000000000000000000000000000000000000000000000600052601260045260246000fd5b6000601f19601f8301169050919050565b610f0b80620002fc6000396000f3fe608060405234801561001057600080fd5b50600436106100415760003560e01c8063845e131a14610046578063970ef8f414610062578063c9c3711414610080575b600080fd5b610060600480360381019061005b919061080c565b61009e565b005b61006a61036b565b6040516100779190610b8d565b60405180910390f35b6100886103b6565b6040516100959190610aa9565b60405180910390f35b60016000808282546100b09190610caa565b925050819055506100d9604051806060016040528060278152602001610eaf60279139336105a0565b600260405180606001604052803373ffffffffffffffffffffffffffffffffffffffff16815260200183815260200142815250908060018154018082558091505060019003906000526020600020906003020160009091909190915060008201518160000160006101000a81548173ffffffffffffffffffffffffffffffffffffffff021916908373ffffffffffffffffffffffffffffffffffffffff1602179055506020820151816001019080519060200190610198929190610701565b50604082015181600201555050606460015442446101b69190610caa565b6101c09190610caa565b6101ca9190610db0565b6001819055506102116040518060400160405280601681526020017f52616e646f6d20232067656e6572617465643a2025640000000000000000000081525060015461063c565b603260015411610318576000655af3107a4000905047811115610269576040517f08c379a000000000000000000000000000000000000000000000000000000000815260040161026090610b6d565b60405180910390fd5b60003373ffffffffffffffffffffffffffffffffffffffff168260405161028f90610a94565b60006040518083038185875af1925050503d80600081146102cc576040519150601f19603f3d011682016040523d82523d6000602084013e6102d1565b606091505b5050905080610315576040517f08c379a000000000000000000000000000000000000000000000000000000000815260040161030c90610b4d565b60405180910390fd5b50505b3373ffffffffffffffffffffffffffffffffffffffff167f23a69cb37f0f5fac74ba86b7fa33b6c92b0b814635dbc50ee9212d2920bef6db4283604051610360929190610ba8565b60405180910390a250565b60006103ae6040518060400160405280601e81526020017f5765206861766520256420746f74616c20506f7274616c73206f70656e21000081525060005461063c565b600054905090565b60606002805480602002602001604051908101604052809291908181526020016000905b828210156104fe57838290600052602060002090600302016040518060600160405290816000820160009054906101000a900473ffffffffffffffffffffffffffffffffffffffff1673ffffffffffffffffffffffffffffffffffffffff1673ffffffffffffffffffffffffffffffffffffffff16815260200160018201805461046390610d7e565b80601f016020809104026020016040519081016040528092919081815260200182805461048f90610d7e565b80156104dc5780601f106104b1576101008083540402835291602001916104dc565b820191906000526020600020905b8154815290600101906020018083116104bf57829003601f168201915b50505050508152602001600282015481525050815260200190600101906103da565b50505050905090565b61059d8160405160240161051b9190610acb565b6040516020818303038152906040527f41304fac000000000000000000000000000000000000000000000000000000007bffffffffffffffffffffffffffffffffffffffffffffffffffffffff19166020820180517bffffffffffffffffffffffffffffffffffffffffffffffffffffffff83818316178352505050506106d8565b50565b61063882826040516024016105b6929190610aed565b6040516020818303038152906040527f319af333000000000000000000000000000000000000000000000000000000007bffffffffffffffffffffffffffffffffffffffffffffffffffffffff19166020820180517bffffffffffffffffffffffffffffffffffffffffffffffffffffffff83818316178352505050506106d8565b5050565b6106d48282604051602401610652929190610b1d565b6040516020818303038152906040527f9710a9d0000000000000000000000000000000000000000000000000000000007bffffffffffffffffffffffffffffffffffffffffffffffffffffffff19166020820180517bffffffffffffffffffffffffffffffffffffffffffffffffffffffff83818316178352505050506106d8565b5050565b60008151905060006a636f6e736f6c652e6c6f679050602083016000808483855afa5050505050565b82805461070d90610d7e565b90600052602060002090601f01602090048101928261072f5760008555610776565b82601f1061074857805160ff1916838001178555610776565b82800160010185558215610776579182015b8281111561077557825182559160200191906001019061075a565b5b5090506107839190610787565b5090565b5b808211156107a0576000816000905550600101610788565b5090565b60006107b76107b284610c09565b610bd8565b9050828152602081018484840111156107cf57600080fd5b6107da848285610d3c565b509392505050565b600082601f8301126107f357600080fd5b81356108038482602086016107a4565b91505092915050565b60006020828403121561081e57600080fd5b600082013567ffffffffffffffff81111561083857600080fd5b610844848285016107e2565b91505092915050565b60006108598383610a26565b905092915050565b61086a81610d00565b82525050565b61087981610d00565b82525050565b600061088a82610c49565b6108948185610c6c565b9350836020820285016108a685610c39565b8060005b858110156108e257848403895281516108c3858261084d565b94506108ce83610c5f565b925060208a019950506001810190506108aa565b50829750879550505050505092915050565b60006108ff82610c54565b6109098185610c88565b9350610919818560208601610d4b565b61092281610e9d565b840191505092915050565b600061093882610c54565b6109428185610c99565b9350610952818560208601610d4b565b61095b81610e9d565b840191505092915050565b6000610973602683610c99565b91507f4661696c656420746f207769746864726177206d6f6e65792066726f6d20636f60008301527f6e747261637400000000000000000000000000000000000000000000000000006020830152604082019050919050565b60006109d9601c83610c99565b91507f4e6f7420456e6f7567682066756e647320696e20636f6e7472616374000000006000830152602082019050919050565b6000610a19600083610c7d565b9150600082019050919050565b6000606083016000830151610a3e6000860182610861565b5060208301518482036020860152610a5682826108f4565b9150506040830151610a6b6040860182610a76565b508091505092915050565b610a7f81610d32565b82525050565b610a8e81610d32565b82525050565b6000610a9f82610a0c565b9150819050919050565b60006020820190508181036000830152610ac3818461087f565b905092915050565b60006020820190508181036000830152610ae5818461092d565b905092915050565b60006040820190508181036000830152610b07818561092d565b9050610b166020830184610870565b9392505050565b60006040820190508181036000830152610b37818561092d565b9050610b466020830184610a85565b9392505050565b60006020820190508181036000830152610b6681610966565b9050919050565b60006020820190508181036000830152610b86816109cc565b9050919050565b6000602082019050610ba26000830184610a85565b92915050565b6000604082019050610bbd6000830185610a85565b8181036020830152610bcf818461092d565b90509392505050565b6000604051905081810181811067ffffffffffffffff82111715610bff57610bfe610e6e565b5b8060405250919050565b600067ffffffffffffffff821115610c2457610c23610e6e565b5b601f19601f8301169050602081019050919050565b6000819050602082019050919050565b600081519050919050565b600081519050919050565b6000602082019050919050565b600082825260208201905092915050565b600081905092915050565b600082825260208201905092915050565b600082825260208201905092915050565b6000610cb582610d32565b9150610cc083610d32565b9250827fffffffffffffffffffffffffffffffffffffffffffffffffffffffffffffffff03821115610cf557610cf4610de1565b5b828201905092915050565b6000610d0b82610d12565b9050919050565b600073ffffffffffffffffffffffffffffffffffffffff82169050919050565b6000819050919050565b82818337600083830152505050565b60005b83811015610d69578082015181840152602081019050610d4e565b83811115610d78576000848401525b50505050565b60006002820490506001821680610d9657607f821691505b60208210811415610daa57610da9610e3f565b5b50919050565b6000610dbb82610d32565b9150610dc683610d32565b925082610dd657610dd5610e10565b5b828206905092915050565b7f4e487b7100000000000000000000000000000000000000000000000000000000600052601160045260246000fd5b7f4e487b7100000000000000000000000000000000000000000000000000000000600052601260045260246000fd5b7f4e487b7100000000000000000000000000000000000000000000000000000000600052602260045260246000fd5b7f4e487b7100000000000000000000000000000000000000000000000000000000600052604160045260246000fd5b6000601f19601f830116905091905056fe25732068617320416374697661746564206120506f7274616c20772f206d657373616765202573a2646970667358221220c5c5f2ef3648781ed483679ca93251bb2e34ecada1aef60a7ff251549067254e64736f6c634300080000334d7920636f6e7472616374732070616e74732061726520736d6172746572207468616e20796f757273203b50",
  "linkReferences": {},
  "deployedLinkReferences": {}
}