{
  "_format": "hh-sol-artifact-1",
  "contractName": "ActivationPortal",
  "sourceName": "contracts/ActivationPortal.sol",
  "abi": [
    {
      "inputs": [],
      "stateMutability": "nonpayable",
      "type": "constructor"
    },
    {
      "anonymous": false,
      "inputs": [
        {
          "indexed": true,
          "internalType": "address",
          "name": "from",
          "type": "address"
        },
        {
          "indexed": false,
          "internalType": "uint256",
          "name": "timestamp",
          "type": "uint256"
        },
        {
          "indexed": false,
          "internalType": "string",
          "name": "message",
          "type": "string"
        }
      ],
      "name": "NewPortal",
      "type": "event"
    },
    {
      "inputs": [
        {
          "internalType": "string",
          "name": "_message",
          "type": "string"
        }
      ],
      "name": "activatePortal",
      "outputs": [],
      "stateMutability": "nonpayable",
      "type": "function"
    },
    {
      "inputs": [],
      "name": "getAllPortals",
      "outputs": [
        {
          "components": [
            {
              "internalType": "address",
              "name": "Activator",
              "type": "address"
            },
            {
              "internalType": "string",
              "name": "message",
              "type": "string"
            },
            {
              "internalType": "uint256",
              "name": "timestamp",
              "type": "uint256"
            }
          ],
          "internalType": "struct ActivationPortal.Portal[]",
          "name": "",
          "type": "tuple[]"
        }
      ],
      "stateMutability": "view",
      "type": "function"
    },
    {
      "inputs": [],
      "name": "getTotalPortalsOpen",
      "outputs": [
        {
          "internalType": "uint256",
          "name": "",
          "type": "uint256"
        }
      ],
      "stateMutability": "view",
      "type": "function"
    }
  ],
  "bytecode": "0x60806040523480156200001157600080fd5b50620000416040518060600160405280602c815260200162000d83602c91396200004760201b620003441760201c565b620001db565b620000e7816040516024016200005e919062000154565b6040516020818303038152906040527f41304fac000000000000000000000000000000000000000000000000000000007bffffffffffffffffffffffffffffffffffffffffffffffffffffffff19166020820180517bffffffffffffffffffffffffffffffffffffffffffffffffffffffff8381831617835250505050620000ea60201b60201c565b50565b60008151905060006a636f6e736f6c652e6c6f679050602083016000808483855afa5050505050565b6000620001208262000178565b6200012c818562000183565b93506200013e81856020860162000194565b6200014981620001ca565b840191505092915050565b6000602082019050818103600083015262000170818462000113565b905092915050565b600081519050919050565b600082825260208201905092915050565b60005b83811015620001b457808201518184015260208101905062000197565b83811115620001c4576000848401525b50505050565b6000601f19601f8301169050919050565b610b9880620001eb6000396000f3fe608060405234801561001057600080fd5b50600436106100415760003560e01c8063845e131a14610046578063970ef8f414610062578063c9c3711414610080575b600080fd5b610060600480360381019061005b9190610649565b61009e565b005b61006a6101a8565b60405161007791906108b5565b60405180910390f35b6100886101f3565b6040516100959190610811565b60405180910390f35b60016000808282546100b09190610997565b925050819055506100d9604051806060016040528060278152602001610b3c60279139336103dd565b600160405180606001604052803373ffffffffffffffffffffffffffffffffffffffff16815260200183815260200142815250908060018154018082558091505060019003906000526020600020906003020160009091909190915060008201518160000160006101000a81548173ffffffffffffffffffffffffffffffffffffffff021916908373ffffffffffffffffffffffffffffffffffffffff160217905550602082015181600101908051906020019061019892919061053e565b5060408201518160020155505050565b60006101eb6040518060400160405280601e81526020017f5765206861766520256420746f74616c20506f7274616c73206f70656e210000815250600054610479565b600054905090565b60606001805480602002602001604051908101604052809291908181526020016000905b8282101561033b57838290600052602060002090600302016040518060600160405290816000820160009054906101000a900473ffffffffffffffffffffffffffffffffffffffff1673ffffffffffffffffffffffffffffffffffffffff1673ffffffffffffffffffffffffffffffffffffffff1681526020016001820180546102a090610a6b565b80601f01602080910402602001604051908101604052809291908181526020018280546102cc90610a6b565b80156103195780601f106102ee57610100808354040283529160200191610319565b820191906000526020600020905b8154815290600101906020018083116102fc57829003601f168201915b5050505050815260200160028201548152505081526020019060010190610217565b50505050905090565b6103da816040516024016103589190610833565b6040516020818303038152906040527f41304fac000000000000000000000000000000000000000000000000000000007bffffffffffffffffffffffffffffffffffffffffffffffffffffffff19166020820180517bffffffffffffffffffffffffffffffffffffffffffffffffffffffff8381831617835250505050610515565b50565b61047582826040516024016103f3929190610855565b6040516020818303038152906040527f319af333000000000000000000000000000000000000000000000000000000007bffffffffffffffffffffffffffffffffffffffffffffffffffffffff19166020820180517bffffffffffffffffffffffffffffffffffffffffffffffffffffffff8381831617835250505050610515565b5050565b610511828260405160240161048f929190610885565b6040516020818303038152906040527f9710a9d0000000000000000000000000000000000000000000000000000000007bffffffffffffffffffffffffffffffffffffffffffffffffffffffff19166020820180517bffffffffffffffffffffffffffffffffffffffffffffffffffffffff8381831617835250505050610515565b5050565b60008151905060006a636f6e736f6c652e6c6f679050602083016000808483855afa5050505050565b82805461054a90610a6b565b90600052602060002090601f01602090048101928261056c57600085556105b3565b82601f1061058557805160ff19168380011785556105b3565b828001600101855582156105b3579182015b828111156105b2578251825591602001919060010190610597565b5b5090506105c091906105c4565b5090565b5b808211156105dd5760008160009055506001016105c5565b5090565b60006105f46105ef84610901565b6108d0565b90508281526020810184848401111561060c57600080fd5b610617848285610a29565b509392505050565b600082601f83011261063057600080fd5b81356106408482602086016105e1565b91505092915050565b60006020828403121561065b57600080fd5b600082013567ffffffffffffffff81111561067557600080fd5b6106818482850161061f565b91505092915050565b600061069683836107a3565b905092915050565b6106a7816109ed565b82525050565b6106b6816109ed565b82525050565b60006106c782610941565b6106d18185610964565b9350836020820285016106e385610931565b8060005b8581101561071f5784840389528151610700858261068a565b945061070b83610957565b925060208a019950506001810190506106e7565b50829750879550505050505092915050565b600061073c8261094c565b6107468185610975565b9350610756818560208601610a38565b61075f81610b2a565b840191505092915050565b60006107758261094c565b61077f8185610986565b935061078f818560208601610a38565b61079881610b2a565b840191505092915050565b60006060830160008301516107bb600086018261069e565b50602083015184820360208601526107d38282610731565b91505060408301516107e860408601826107f3565b508091505092915050565b6107fc81610a1f565b82525050565b61080b81610a1f565b82525050565b6000602082019050818103600083015261082b81846106bc565b905092915050565b6000602082019050818103600083015261084d818461076a565b905092915050565b6000604082019050818103600083015261086f818561076a565b905061087e60208301846106ad565b9392505050565b6000604082019050818103600083015261089f818561076a565b90506108ae6020830184610802565b9392505050565b60006020820190506108ca6000830184610802565b92915050565b6000604051905081810181811067ffffffffffffffff821117156108f7576108f6610afb565b5b8060405250919050565b600067ffffffffffffffff82111561091c5761091b610afb565b5b601f19601f8301169050602081019050919050565b6000819050602082019050919050565b600081519050919050565b600081519050919050565b6000602082019050919050565b600082825260208201905092915050565b600082825260208201905092915050565b600082825260208201905092915050565b60006109a282610a1f565b91506109ad83610a1f565b9250827fffffffffffffffffffffffffffffffffffffffffffffffffffffffffffffffff038211156109e2576109e1610a9d565b5b828201905092915050565b60006109f8826109ff565b9050919050565b600073ffffffffffffffffffffffffffffffffffffffff82169050919050565b6000819050919050565b82818337600083830152505050565b60005b83811015610a56578082015181840152602081019050610a3b565b83811115610a65576000848401525b50505050565b60006002820490506001821680610a8357607f821691505b60208210811415610a9757610a96610acc565b5b50919050565b7f4e487b7100000000000000000000000000000000000000000000000000000000600052601160045260246000fd5b7f4e487b7100000000000000000000000000000000000000000000000000000000600052602260045260246000fd5b7f4e487b7100000000000000000000000000000000000000000000000000000000600052604160045260246000fd5b6000601f19601f830116905091905056fe25732068617320416374697661746564206120506f7274616c20772f206d657373616765202573a2646970667358221220b9f54bc457da367d3159165c7cc387de6522e38c848b8ef01f3b510cc4a774d664736f6c634300080000334d7920636f6e7472616374732070616e74732061726520736d6172746572207468616e20796f757273203b50",
  "linkReferences": {},
  "deployedLinkReferences": {}
}